:020000020000FC
:020000006BC1D2
:02004000B1C34A
:1000A000F2E5E0E0D0E0DA95F1F7EA95E1F7FA95CC
:1000B000D1F79A95A9F70895E6E1D0E0DA95F1F73E
:1000C000EA95E1F79A95C1F7089500000000000055
:1000D0000000000000000000000000000000000020
:1000E0000000000000000000000008950FEF0AB9B2
:1000F000E0E0F0E0F82F8A3028F0FA40E395FA309B
:1001000008F0FBCFD0E0DE2FD295DF2BDBB90895CE
:100110000FEF0AB9EFEFEBB90895F999FECF71BD72
:1001200060BDFA9AF99A0895F999FECF71BDF89ACF
:1001300060B50895E0E0E093C500E7E6E093C40011
:10014000E8E1E093C1000895E091C000E5FFFCCF35
:100150005093C6000895E091C000E7FFFCCFF090F7
:10016000C6000895E0937C00E7ECE0937A00E0910C
:100170007A00E6FDFCCFE09079000895229AE1EA4A
:10018000E0938000E0E0E0938B00E42FE0938A00AE
:10019000E3E0E09381000895E3E0E0938100E1E093
:1001A000E0936F0078940895E0E0E0938100E0E050
:1001B000E0936F00E0E0E0938500E0938400E0E0EE
:1001C000DE2E0895529A539A549A559A569A579AEF
:1001D0005A985B985F985E985D985C989FE06CDF9A
:1001E0005F985E985D9A5C9A4CD095E065DF5F9869
:1001F0005E985C9A46D095E05FDF5F985E985D9A66
:100200005C9A3FD095E058DF5F985E985D9A5C9865
:1002100038D091E051DF38E211D03CE00FD031E02E
:100220000DD092E049DF36E009D05A9A08955A98E5
:1002300031E004D092E040DF5A9A089537FD5F9A8A
:1002400037FF5F9836FD5E9A36FF5E9835FD5D9A02
:1002500035FF5D9834FD5C9A34FF5C9812D033FD15
:100260005F9A33FF5F9832FD5E9A32FF5E9831FDF0
:100270005D9A31FF5D9830FD5C9A30FF5C9801D04B
:1002800008955B9822DF5B9A20DF5B98A2E31DDF75
:10029000AA95A030E1F708955A98E0E81E0F312F93
:1002A000CDDF5A9A08955A98E0EC1E0F312FC6DF21
:1002B0005A9A0895F0E0E0E0E22F2A3028F0EA4070
:1002C000F395EA3008F0FBCFD0E3ED0FFD0F3F2FA1
:1002D000B5DF3E2FB3DF089508E00EBF0FEF0DBF6F
:1002E00001E004B90AE305B900E008B900E090E0D4
:1002F000009350011FDF66DF9ADF0BC000E504BDED
:1003000001E000936E0005E005BD04E606BD7894AB
:100310006AC117E0C1DF32E491DF35E48FDF3DE4ED
:100320008DDF16E0C0DF36E589DF39E487DF3EE4A4
:1003300085DF34E483DF3FE481DF30E27FDF3AE3CF
:100340007DDF39E27BDF92E0ABDE4AD070DF12E086
:10035000A3DF34E473DF35E471DF36E46FDF39E4C3
:100360006DDF3EE46BDF39E469DF32E567DF19E01A
:1003700093DF30E263DF3DE461DF3FE45FDF34E4DD
:100380005DDF3FE45BDF11E08EDF3DE257DF30E20F
:100390001EE089DF3BE252DF00E092E081DE20D008
:1003A0001C9B07D01D9B16D0199B98D0F9CF0A2F04
:1003B00006C01C9BFECFA02F0A950330C0F71C9BE4
:1003C000FECF0030A1F0013099F0023091F0089595
:1003D0000A2F06C01D9BFECFA02F03950330C0F748
:1003E000003029F0013021F0023019F0089554C096
:1003F0002BC000C01CDF11E056DF3DE21FDF16E01E
:100400004BDF3DE41BDF3FE419DF34E417DF3FE45B
:1004100015DF13E048DF33E511DF31E40FDF3CE4A3
:100420000DDF36E50BDF31E409DF3DE407DF35E4BE
:1004300005DF3EE403DF34E501DF3FE4FFDE1EE0DD
:1004400032DF3BE2FBDE0895F2DE11E02CDF3DE21D
:10045000F5DE16E021DF3DE4F1DE3FE4EFDE34E4DB
:10046000EDDE3FE4EBDE14E01EDF33E5E7DE3FE4E4
:10047000E5DE36E4E3DE34E5E1DE33E5DFDE34E518
:10048000DDDE31E4DBDE32E5D9DE34E5D7DE1EE049
:100490000ADF3BE2D3DE0895CADE11E004DF3DE26D
:1004A000CDDE16E0F9DE3DE4C9DE3FE4C7DE34E42C
:1004B000C5DE3FE4C3DE15E0F6DE3EE4BFDE3FE42A
:1004C000BDDE32E5BBDE3DE4B9DE31E4B7DE3CE45F
:1004D000B5DE1EE0E8DE3BE2B1DE0895199BFECFFB
:1004E000023029F0013019F0003011F0F7CFFFCFC2
:1004F0009EDE13E0D1DE3DE4A1DE3FE49FDE34E486
:100500009DDE3FE49BDE17E0C7DE30E297DE3EE48F
:1005100095DE3FE493DE32E591DE3DE48FDE31E4AB
:100520008DDE3CE48BDE17E0BEDE3FE487DE3EE49A
:1005300085DE00E095E050E0523038F41C9B09D095
:100540001D9B0BD0199B0DD0F7CF71DE009380015E
:10055000D5CE1C9BFECF0A950CC01D9BFECF0395EC
:1005600008C0199BFECF0093890161DE21D053950D
:100570000895503019F05130D8F4089558DE12E043
:100580008BDE34E55BDE35E459DE3DE457DE30E5F5
:1005900055DE30E253DE36E551DE31E44FDE3CE439
:1005A0004DDE3AE34BDE17E07EDE202F83DE08953A
:1005B0003EDE12E071DE33E441DE3FE43FDE32E551
:1005C0003DDE32E53BDE30E239DE36E537DE31E472
:1005D00035DE3CE433DE3AE331DE15E064DE202F25
:1005E00069DE0895A9CFFFCF1B99089500C01B991C
:1005F000FECF4DD008E00EBF0FEF0DBF18D013D0C7
:1006000040E0BCDD7AD01999FECF1BD022D00FDE9E
:1006100075CEE0E6A7DD4E2DB1DD483210F418F0BE
:100620000895289A089540E0A9DD2898089500E0EB
:1006300004BD00E000936E0000E005BD00E006BDD3
:100640000895E2E68FDDE09180010E2D0E1748F44B
:100650000895E1E687DDA09189010E2D0E1788F53A
:10066000089550E271DD53E66FDD5FE66DDD52E720
:100670006BDD52E769DD55E667DD5EE665DD54E773
:1006800063DD55E661DD50E25FDDB4CF089550E2F1
:100690005BDD55E659DD5DE657DD55E655DD52E794
:1006A00053DD57E651DD55E64FDD5EE64DDD53E6A1
:1006B0004BDD59E649DD51E647DD50E245DD9ACF95
:1006C000089550E241DD54E73FDD55E63DDD5DE64E
:1006D0003BDD50E739DD55E637DD52E735DD51E6E4
:1006E00033DD54E731DD55E72FDD52E72DDD51E6EF
:1006F0002BDD50E229DD7ECF089599DD13E0CCDDBE
:1007000035E49CDD3DE49ADD35E498DD32E596DDA7
:1007100037E494DD35E492DD3EE490DD33E48EDDB4
:1007200039E48CDD31E48ADD14E0BDDD31E486DDC1
:1007300033E484DD39E482DD3FE480DD3EE47EDDC8
:1007400031E47CDD34E47ADD31E478DD08956FDD79
:1007500010E0A2DD32E472DD3FE470DD34E56EDDF1
:1007600031E46CDD3FE46ADD089561DD10E094DD85
:1007700036E564DD31E462DD3CE460DD3FE45EDD0E
:1007800032E55CDD30E25ADD30E558DD37E556DD37
:100790003DE454DD3AE352DD30E250DD7DDD2E2DC7
:1007A00089DD08950F930FB70F9304E606BD31DF7F
:1007B0001BDF47DF4EDF90915001939590935001DE
:1007C000943620F40F910FBF0F91189590E09093FD
:1007D0005001909166019395909366019C3320F4AB
:1007E0000F910FBF0F9118950F910FBF0F91189593
:00000001FF
